{
  "contractName": "TestToken",
  "abi": [
    {
      "inputs": [],
      "stateMutability": "nonpayable",
      "type": "constructor"
    },
    {
      "anonymous": false,
      "inputs": [
        {
          "indexed": true,
          "internalType": "address",
          "name": "owner",
          "type": "address"
        },
        {
          "indexed": true,
          "internalType": "address",
          "name": "spender",
          "type": "address"
        },
        {
          "indexed": false,
          "internalType": "uint256",
          "name": "value",
          "type": "uint256"
        }
      ],
      "name": "Approval",
      "type": "event"
    },
    {
      "anonymous": false,
      "inputs": [
        {
          "indexed": true,
          "internalType": "address",
          "name": "from",
          "type": "address"
        },
        {
          "indexed": true,
          "internalType": "address",
          "name": "to",
          "type": "address"
        },
        {
          "indexed": false,
          "internalType": "uint256",
          "name": "value",
          "type": "uint256"
        }
      ],
      "name": "Transfer",
      "type": "event"
    },
    {
      "inputs": [
        {
          "internalType": "address",
          "name": "",
          "type": "address"
        },
        {
          "internalType": "address",
          "name": "",
          "type": "address"
        }
      ],
      "name": "allowance",
      "outputs": [
        {
          "internalType": "uint256",
          "name": "",
          "type": "uint256"
        }
      ],
      "stateMutability": "view",
      "type": "function"
    },
    {
      "inputs": [
        {
          "internalType": "address",
          "name": "",
          "type": "address"
        }
      ],
      "name": "balanceOf",
      "outputs": [
        {
          "internalType": "uint256",
          "name": "",
          "type": "uint256"
        }
      ],
      "stateMutability": "view",
      "type": "function"
    },
    {
      "inputs": [],
      "name": "decimals",
      "outputs": [
        {
          "internalType": "uint8",
          "name": "",
          "type": "uint8"
        }
      ],
      "stateMutability": "view",
      "type": "function"
    },
    {
      "inputs": [],
      "name": "name",
      "outputs": [
        {
          "internalType": "string",
          "name": "",
          "type": "string"
        }
      ],
      "stateMutability": "view",
      "type": "function"
    },
    {
      "inputs": [],
      "name": "symbol",
      "outputs": [
        {
          "internalType": "string",
          "name": "",
          "type": "string"
        }
      ],
      "stateMutability": "view",
      "type": "function"
    },
    {
      "inputs": [],
      "name": "totalSupply",
      "outputs": [
        {
          "internalType": "uint256",
          "name": "",
          "type": "uint256"
        }
      ],
      "stateMutability": "view",
      "type": "function"
    },
    {
      "inputs": [
        {
          "internalType": "address",
          "name": "to",
          "type": "address"
        },
        {
          "internalType": "uint256",
          "name": "value",
          "type": "uint256"
        }
      ],
      "name": "transfer",
      "outputs": [
        {
          "internalType": "bool",
          "name": "success",
          "type": "bool"
        }
      ],
      "stateMutability": "nonpayable",
      "type": "function"
    },
    {
      "inputs": [
        {
          "internalType": "address",
          "name": "to",
          "type": "address"
        },
        {
          "internalType": "uint256",
          "name": "value",
          "type": "uint256"
        },
        {
          "internalType": "bytes",
          "name": "data",
          "type": "bytes"
        }
      ],
      "name": "transfer",
      "outputs": [
        {
          "internalType": "bool",
          "name": "",
          "type": "bool"
        }
      ],
      "stateMutability": "nonpayable",
      "type": "function"
    },
    {
      "inputs": [
        {
          "internalType": "address",
          "name": "spender",
          "type": "address"
        },
        {
          "internalType": "uint256",
          "name": "value",
          "type": "uint256"
        }
      ],
      "name": "approve",
      "outputs": [
        {
          "internalType": "bool",
          "name": "success",
          "type": "bool"
        }
      ],
      "stateMutability": "nonpayable",
      "type": "function"
    },
    {
      "inputs": [
        {
          "internalType": "address",
          "name": "from",
          "type": "address"
        },
        {
          "internalType": "address",
          "name": "to",
          "type": "address"
        },
        {
          "internalType": "uint256",
          "name": "value",
          "type": "uint256"
        }
      ],
      "name": "transferFrom",
      "outputs": [
        {
          "internalType": "bool",
          "name": "success",
          "type": "bool"
        }
      ],
      "stateMutability": "nonpayable",
      "type": "function"
    }
  ],
  "bytecode": "0x60806040526040518060400160405280600381526020017f5354410000000000000000000000000000000000000000000000000000000000815250600190805190602001906200005192919062000149565b506040518060400160405280600381526020017f5354410000000000000000000000000000000000000000000000000000000000815250600290805190602001906200009f92919062000149565b506012600360006101000a81548160ff021916908360ff160217905550600360009054906101000a900460ff1660ff16600a620000dd919062000386565b620f4240620000ed9190620003d7565b600455348015620000fd57600080fd5b506004546000803373ffffffffffffffffffffffffffffffffffffffff1673ffffffffffffffffffffffffffffffffffffffff168152602001908152602001600020819055506200049d565b828054620001579062000467565b90600052602060002090601f0160209004810192826200017b5760008555620001c7565b82601f106200019657805160ff1916838001178555620001c7565b82800160010185558215620001c7579182015b82811115620001c6578251825591602001919060010190620001a9565b5b509050620001d69190620001da565b5090565b5b80821115620001f5576000816000905550600101620001db565b5090565b7f4e487b7100000000000000000000000000000000000000000000000000000000600052601160045260246000fd5b60008160011c9050919050565b6000808291508390505b600185111562000287578086048111156200025f576200025e620001f9565b5b60018516156200026f5780820291505b80810290506200027f8562000228565b94506200023f565b94509492505050565b600082620002a2576001905062000375565b81620002b2576000905062000375565b8160018114620002cb5760028114620002d6576200030c565b600191505062000375565b60ff841115620002eb57620002ea620001f9565b5b8360020a915084821115620003055762000304620001f9565b5b5062000375565b5060208310610133831016604e8410600b8410161715620003465782820a90508381111562000340576200033f620001f9565b5b62000375565b62000355848484600162000235565b925090508184048111156200036f576200036e620001f9565b5b81810290505b9392505050565b6000819050919050565b600062000393826200037c565b9150620003a0836200037c565b9250620003cf7fffffffffffffffffffffffffffffffffffffffffffffffffffffffffffffffff848462000290565b905092915050565b6000620003e4826200037c565b9150620003f1836200037c565b9250817fffffffffffffffffffffffffffffffffffffffffffffffffffffffffffffffff04831182151516156200042d576200042c620001f9565b5b828202905092915050565b7f4e487b7100000000000000000000000000000000000000000000000000000000600052602260045260246000fd5b600060028204905060018216806200048057607f821691505b6020821081141562000497576200049662000438565b5b50919050565b610e8f80620004ad6000396000f3fe608060405234801561001057600080fd5b506004361061009e5760003560e01c806370a082311161006657806370a082311461015d57806395d89b411461018d578063a9059cbb146101ab578063be45fd62146101db578063dd62ed3e1461020b5761009e565b806306fdde03146100a3578063095ea7b3146100c157806318160ddd146100f157806323b872dd1461010f578063313ce5671461013f575b600080fd5b6100ab61023b565b6040516100b8919061093a565b60405180910390f35b6100db60048036038101906100d69190610a04565b6102c9565b6040516100e89190610a5f565b60405180910390f35b6100f96103bb565b6040516101069190610a89565b60405180910390f35b61012960048036038101906101249190610aa4565b6103c1565b6040516101369190610a5f565b60405180910390f35b610147610644565b6040516101549190610b13565b60405180910390f35b61017760048036038101906101729190610b2e565b610657565b6040516101849190610a89565b60405180910390f35b61019561066f565b6040516101a2919061093a565b60405180910390f35b6101c560048036038101906101c09190610a04565b6106fd565b6040516101d29190610a5f565b60405180910390f35b6101f560048036038101906101f09190610c90565b610715565b6040516102029190610a5f565b60405180910390f35b61022560048036038101906102209190610cff565b61087c565b6040516102329190610a89565b60405180910390f35b6001805461024890610d6e565b80601f016020809104026020016040519081016040528092919081815260200182805461027490610d6e565b80156102c15780601f10610296576101008083540402835291602001916102c1565b820191906000526020600020905b8154815290600101906020018083116102a457829003601f168201915b505050505081565b600081600560003373ffffffffffffffffffffffffffffffffffffffff1673ffffffffffffffffffffffffffffffffffffffff16815260200190815260200160002060008573ffffffffffffffffffffffffffffffffffffffff1673ffffffffffffffffffffffffffffffffffffffff168152602001908152602001600020819055508273ffffffffffffffffffffffffffffffffffffffff163373ffffffffffffffffffffffffffffffffffffffff167f8c5be1e5ebec7d5bd14f71427d1e84f3dd0314c0f7b2291e5b200ac8c7c3b925846040516103a99190610a89565b60405180910390a36001905092915050565b60045481565b60008060008573ffffffffffffffffffffffffffffffffffffffff1673ffffffffffffffffffffffffffffffffffffffff1681526020019081526020016000205482111561040e57600080fd5b600560008573ffffffffffffffffffffffffffffffffffffffff1673ffffffffffffffffffffffffffffffffffffffff16815260200190815260200160002060003373ffffffffffffffffffffffffffffffffffffffff1673ffffffffffffffffffffffffffffffffffffffff1681526020019081526020016000205482111561049757600080fd5b816000808673ffffffffffffffffffffffffffffffffffffffff1673ffffffffffffffffffffffffffffffffffffffff16815260200190815260200160002060008282546104e59190610dcf565b92505081905550816000808573ffffffffffffffffffffffffffffffffffffffff1673ffffffffffffffffffffffffffffffffffffffff168152602001908152602001600020600082825461053a9190610e03565b9250508190555081600560008673ffffffffffffffffffffffffffffffffffffffff1673ffffffffffffffffffffffffffffffffffffffff16815260200190815260200160002060003373ffffffffffffffffffffffffffffffffffffffff1673ffffffffffffffffffffffffffffffffffffffff16815260200190815260200160002060008282546105cd9190610dcf565b925050819055508273ffffffffffffffffffffffffffffffffffffffff168473ffffffffffffffffffffffffffffffffffffffff167fddf252ad1be2c89b69c2b068fc378daa952ba7f163c4a11628f55a4df523b3ef846040516106319190610a89565b60405180910390a3600190509392505050565b600360009054906101000a900460ff1681565b60006020528060005260406000206000915090505481565b6002805461067c90610d6e565b80601f01602080910402602001604051908101604052809291908181526020018280546106a890610d6e565b80156106f55780601f106106ca576101008083540402835291602001916106f5565b820191906000526020600020905b8154815290600101906020018083116106d857829003601f168201915b505050505081565b6000606061070c848483610715565b91505092915050565b6000826000803373ffffffffffffffffffffffffffffffffffffffff1673ffffffffffffffffffffffffffffffffffffffff16815260200190815260200160002054101561076257600080fd5b826000803373ffffffffffffffffffffffffffffffffffffffff1673ffffffffffffffffffffffffffffffffffffffff16815260200190815260200160002060008282546107b09190610dcf565b92505081905550826000808673ffffffffffffffffffffffffffffffffffffffff1673ffffffffffffffffffffffffffffffffffffffff16815260200190815260200160002060008282546108059190610e03565b925050819055508373ffffffffffffffffffffffffffffffffffffffff163373ffffffffffffffffffffffffffffffffffffffff167fddf252ad1be2c89b69c2b068fc378daa952ba7f163c4a11628f55a4df523b3ef856040516108699190610a89565b60405180910390a3600190509392505050565b6005602052816000526040600020602052806000526040600020600091509150505481565b600081519050919050565b600082825260208201905092915050565b60005b838110156108db5780820151818401526020810190506108c0565b838111156108ea576000848401525b50505050565b6000601f19601f8301169050919050565b600061090c826108a1565b61091681856108ac565b93506109268185602086016108bd565b61092f816108f0565b840191505092915050565b600060208201905081810360008301526109548184610901565b905092915050565b6000604051905090565b600080fd5b600080fd5b600073ffffffffffffffffffffffffffffffffffffffff82169050919050565b600061099b82610970565b9050919050565b6109ab81610990565b81146109b657600080fd5b50565b6000813590506109c8816109a2565b92915050565b6000819050919050565b6109e1816109ce565b81146109ec57600080fd5b50565b6000813590506109fe816109d8565b92915050565b60008060408385031215610a1b57610a1a610966565b5b6000610a29858286016109b9565b9250506020610a3a858286016109ef565b9150509250929050565b60008115159050919050565b610a5981610a44565b82525050565b6000602082019050610a746000830184610a50565b92915050565b610a83816109ce565b82525050565b6000602082019050610a9e6000830184610a7a565b92915050565b600080600060608486031215610abd57610abc610966565b5b6000610acb868287016109b9565b9350506020610adc868287016109b9565b9250506040610aed868287016109ef565b9150509250925092565b600060ff82169050919050565b610b0d81610af7565b82525050565b6000602082019050610b286000830184610b04565b92915050565b600060208284031215610b4457610b43610966565b5b6000610b52848285016109b9565b91505092915050565b600080fd5b600080fd5b7f4e487b7100000000000000000000000000000000000000000000000000000000600052604160045260246000fd5b610b9d826108f0565b810181811067ffffffffffffffff82111715610bbc57610bbb610b65565b5b80604052505050565b6000610bcf61095c565b9050610bdb8282610b94565b919050565b600067ffffffffffffffff821115610bfb57610bfa610b65565b5b610c04826108f0565b9050602081019050919050565b82818337600083830152505050565b6000610c33610c2e84610be0565b610bc5565b905082815260208101848484011115610c4f57610c4e610b60565b5b610c5a848285610c11565b509392505050565b600082601f830112610c7757610c76610b5b565b5b8135610c87848260208601610c20565b91505092915050565b600080600060608486031215610ca957610ca8610966565b5b6000610cb7868287016109b9565b9350506020610cc8868287016109ef565b925050604084013567ffffffffffffffff811115610ce957610ce861096b565b5b610cf586828701610c62565b9150509250925092565b60008060408385031215610d1657610d15610966565b5b6000610d24858286016109b9565b9250506020610d35858286016109b9565b9150509250929050565b7f4e487b7100000000000000000000000000000000000000000000000000000000600052602260045260246000fd5b60006002820490506001821680610d8657607f821691505b60208210811415610d9a57610d99610d3f565b5b50919050565b7f4e487b7100000000000000000000000000000000000000000000000000000000600052601160045260246000fd5b6000610dda826109ce565b9150610de5836109ce565b925082821015610df857610df7610da0565b5b828203905092915050565b6000610e0e826109ce565b9150610e19836109ce565b9250827fffffffffffffffffffffffffffffffffffffffffffffffffffffffffffffffff03821115610e4e57610e4d610da0565b5b82820190509291505056fea2646970667358221220c787704376b93f9ef033b6eca23cecc7886b8be3973df6d20a4f99a2534508a464736f6c634300080b0033",
  "immutableReferences": {},
  "source": "pragma solidity ^0.8.0;\r\n\r\nimport \"@openzeppelin/contracts/token/ERC20/ERC20.sol\";\r\n\r\ncontract TestToken {\r\n    // Track how many tokens are owned by each address.\r\n    mapping(address => uint256) public balanceOf;\r\n\r\n    string public name = \"STA\";\r\n    string public symbol = \"STA\";\r\n    uint8 public decimals = 18;\r\n\r\n    uint256 public totalSupply = 1000000 * (10**uint256(decimals));\r\n\r\n    event Transfer(address indexed from, address indexed to, uint256 value);\r\n\r\n    constructor() public {\r\n        balanceOf[msg.sender] = totalSupply;\r\n    }\r\n\r\n    function isContract(address _addr) private view returns (bool is_contract) {\r\n        uint256 length;\r\n        assembly {\r\n            //retrieve the size of the code on target address, this needs assembly\r\n            length := extcodesize(_addr)\r\n        }\r\n        return length > 0;\r\n    }\r\n\r\n    function transfer(address to, uint256 value) public returns (bool success) {\r\n        bytes memory empty;\r\n        return transfer(to, value, empty);\r\n    }\r\n\r\n    function transfer(\r\n        address to,\r\n        uint256 value,\r\n        bytes memory data\r\n    ) public returns (bool) {\r\n        require(balanceOf[msg.sender] >= value);\r\n\r\n        balanceOf[msg.sender] -= value;\r\n        balanceOf[to] += value;\r\n        emit Transfer(msg.sender, to, value);\r\n\r\n        // if (isContract(to)) {\r\n        //     ITokenReceiver(to).tokenFallback(msg.sender, value, data);\r\n        // }\r\n        return true;\r\n    }\r\n\r\n    event Approval(\r\n        address indexed owner,\r\n        address indexed spender,\r\n        uint256 value\r\n    );\r\n\r\n    mapping(address => mapping(address => uint256)) public allowance;\r\n\r\n    function approve(address spender, uint256 value)\r\n        public\r\n        returns (bool success)\r\n    {\r\n        allowance[msg.sender][spender] = value;\r\n        emit Approval(msg.sender, spender, value);\r\n        return true;\r\n    }\r\n\r\n    function transferFrom(\r\n        address from,\r\n        address to,\r\n        uint256 value\r\n    ) public returns (bool success) {\r\n        require(value <= balanceOf[from]);\r\n        require(value <= allowance[from][msg.sender]);\r\n\r\n        balanceOf[from] -= value;\r\n        balanceOf[to] += value;\r\n        allowance[from][msg.sender] -= value;\r\n        emit Transfer(from, to, value);\r\n        return true;\r\n    }\r\n}\r\n",
  "sourcePath": "C:\\Users\\gnaht\\Desktop\\metamask\\ERC20Truffle\\contracts\\STA.sol",
  "compiler": {
    "name": "solc",
    "version": "0.8.11+commit.d7f03943.Emscripten.clang"
  },
  "schemaVersion": "3.4.9",
  "updatedAt": "2022-08-30T05:29:37.393Z",
  "devdoc": {
    "kind": "dev",
    "methods": {},
    "version": 1
  },
  "userdoc": {
    "kind": "user",
    "methods": {},
    "version": 1
  }
}